S0140000415453414D335838455F46572E7372656396
S21408000058270720A91C0800A51C0800A51C0800DE
S214080010A51C0800A51C0800A51C08000000000078
S214080020000000000000000000000000A51C0800FA
S214080030A51C080000000000A51C0800A51C080058
S214080040A51C0800A51C0800A51C0800A51C08007F
S214080050A51C0800A51C0800A51C0800A51C08006F
S214080060A51C0800A51C080000000000011C0800CC
S214080070151C0800291C08003D1C0800000000008C
S21408008000000000A51C0800A51C0800A51C080008
S214080090A51C0800A51C0800A51C0800A51C08002F
S2140800A0A51C080000000000A51C0800A51C0800E8
S2140800B0A51C0800A51C0800A51C0800A51C08000F
S2140800C0A51C0800A51C0800A51C0800A51C0800FF
S2140800D0A51C0800A51C0800A51C0800A51C0800EF
S2140800E0050F0800A51C0800A51C0800A51C08008C
S2140800F0A51C080008B50548054B191A062900D896
S21408010008BD044A002AFBD09047F9E7901E08006D
S214080110931E08000000000008B50748074B191A88
S2140801208A1002EBD273591000D108BD044A002A7F
S214080130FBD09047F9E700BF901E0800901E080005
S2140801400000000010B5064C237843B9FFF7D2FF2D
S214080150044810B10448AFF300800121217010BD97
S2140801601805072000000000901E080008B5084B78
S2140801701BB108480849AFF300800848016811B168
S214080180074A02B19047BDE80840FFF7C5BF00BF61
S21408019000000000901E08001C050720901E08009E
S2140801A000000000EFF3108072B6BFF35F8F0022E6
S2140801B0811A024B48421A7048417047E0000720EF
S2140801C010B5104B104C002222701A800F4BA1203D
S2140801D018702020587002205A809A80D8801A8179
S2140801E00B4B11461A7001206FF03D025A70D970F9
S2140801F09870197159710821997123781A18D1B213
S214080200217010BD64060720C8050720D4050720FE
S21408021035050720024B1A78501EC1B21970704770
S214080220C8050720044B1A78501EC1B219701B78EF
S214080230024B00221A7070473C050720CE0507209F
S21408024000207047002070477047000028B1034B15
S21408025001221A70BFF35F8F62B67047E00007206E
S214080260134B1A7812F0800F02F0600008D020288E
S2140802701BD15A78212A18D1D888072815D10FE01B
S214080280202812D15978202905D0B1F122035A42E4
S21408029052EB03007047D888072806D1054919612C
S2140802A0054998819960012070470020704700BF73
S2140802B0400707204902080035050720F7B5334BE5
S2140802C01878002860D132498847324A148868B1BD
S2140802D0314B9847844257D0304CA047304D06469D
S2140802E02C78304830F81410B9B901E02E4BF0E7F6
S2140802F02E4D2F887A1C264F2A80B84730B92B886F
S214080300632B03D830462A4B98473DE0B84720B1C0
S21408031026480188B1F5487FF4D3264B234A187837
S2140803200025158030B9611B4D421D4B55EB010267
S2140803301A7003E0D4F1010438BF002413490120E1
S21408034008701B4D3046A847164A32F81430B3F1E9
S214080350400518BF01254DB10D4EB0470D4E08B1EA
S2140803600D4900E010498847308001E009480580BB
S2140803700C4A114832F81430104A009002EB8412E6
S214080380812029460E4CA047FEBD00BFD005072099
S214080390C5130800CC05072011140800A50108009D
S2140803A03D0507203E0507200114080060060720C3
S2140803B04D02080062060720D103080044050720FE
S2140803C0F515080008B5014B984708BDBD0208009A
S2140803D008B570B9074B084A1978084BD1F10101DE
S2140803E038BF002123F81100054908701070054829
S2140803F0804708BD3D050720D00507203E05072095
S21408040062060720BD02080010B5074B9847074943
S214080410074A0C88074BA1B2147833F81420541AEC
S21408042005498847204610BDA5010800CA050720CB
S214080430CF050720C40507204D02080008B5034B62
S2140804409847003018BF012008BD00BF09040800FF
S214080450F7B5174B9847174A174B14781D78064672
S21408046045B91649DFF86CE00F883EF814C0BFB2ED
S214080470BC4504D9304612498847002016E0D4F116
S214080480010638BF00260D8016700D4A01261E701C
S21408049090470C4B284698470B480C4A009002EBAE
S2140804A08412022031464023094CA047FEBD00BFF7
S2140804B0A5010800CF05072034050720CA05072030
S2140804C04D0208003D040800D9040800E00507208E
S2140804D0F5150800C405072013B5C0B90C4B1B78E2
S2140804E0D3F1010338BF002351B90A4C10460A4A13
S2140804F0009402EB831201214023084CA04706E033
S214080500074A22F8131007490870074880471CBD99
S214080510CF050720D9040800E0050720F5150800D0
S214080520C4050720340507205104080070B5144B8D
S214080530144D002414482C70144A1C701449154B8A
S214080540047015480C70148054801C80804713492A
S214080550134A144B14480C701449147026461C8011
S2140805600480884758B12A78531CD8B2287029784E
S2140805700129084602D10E4A117070BD012070BDCF
S214080580D00507203C050720620607203E05072001
S2140805903D050720CC050720BD02080034050720C6
S2140805A0CF050720C4050720CA0507205104080000
S2140805B0CE05072008B5034B0349588800F07F008E
S2140805C0884708BD40070720C913080010B5124B16
S2140805D01A782AB1114B1A6813681A79824201D818
S2140805E0002010BD0E4A13605A889A189A420FD9EE
S2140805F05C78042C09D19C78844206D1DC788C423D
S21408060003D1074901200B6010BD1C781B19EDE7C4
S21408061003480360E4E700BF700607206806072063
S21408062074060720084B19680B685A889B180178C7
S2140806304018834205D94278042A02D0052AF6D102
S21408064000E00020704700BF6806072070B500214C
S2140806500E4C0646A047C0B10D4B1868416851F8C5
S2140806602650EA68904701463046A04768B1094CCC
S21408067024682046084B9847044618B180780749EE
S2140806808847F6E768688047012070BDCD050800F2
S2140806906806072074060720250608002D1408009B
S2140806A038B50E4B0546984708B9002038BD0C48A3
S2140806B0046820460B498847044638B18078E178B4
S2140806C0A288094B98470028F3D1EEE7074A106836
S2140806D0416851F825301A68904738BDCD0508009E
S2140806E07406072025060800B116080068060720C5
S2140806F010B50B4B187830B9094A0A4B002101206F
S2140807001170188010BD002407490A681368187904
S214080710A042F1D92046054901348847E4B2F3E7F8
S214080720700607206E060720680607204D06080094
S21408073010B50A4B187800B910BD002408490B6894
S2140807401A681079A04208D9596851F824301A69ED
S21408075002B190470134E4B2F0E710BD70060720F6
S2140807606806072070B5964A002393811361536183
S2140807701378D8B2010603D5D188002900F09B81EA
S21408078013F0600140F0518110F0800F8C4C00F09F
S2140807909980E588002D00F0488113F01F0057D196
S2140807A06178062909D008294DD0002940F03D81F6
S2140807B0022D40F03A81834880E06088050A022DC1
S2140807C008D0032D16D0012D40F02F817E490868E9
S2140807D001782EE07C4BC0B219684A7C824240F20F
S2140807E024815B68794A53F8300041889047A068AE
S2140807F0457020E0C3B2032B00F21781DFE813F040
S214080800070004000A0058010C21714A04E07148E8
S21408081004210EE0704A112100237048D55C00EBD5
S214080820430401336580DCB28C42F6D349000231BA
S2140808300170664A9047624BDA889989914240F27D
S214080840F2809A81EFE0012D40F0EF80644835E0B1
S214080850012823D160780A2840F0E780012D40F06F
S214080860E4805F4B1A78002A00F0DF805D4D24791B
S2140808702D6828680379A34240F2D78020465A4A52
S2140808809047002800F0D180696851F82400C368B2
S2140808909847564A01211070104610E0022840F08A
S2140808A0C4806178002940F0C080022D40F0BD80E9
S2140808B020794F4B98474F4A108010462946434B9D
S2140808C09847B0E013F01F0351D16178481E0828F6
S2140808D000F2AB80DFE810F01100A900A900A9001B
S2140808E00900A900A900A9002000E288002A40F013
S2140808F09C804149324B196195E0E088002840F019
S21408090094802F4A5188012940F08F802D4B1888F3
S21408091020F002021A8086E0E488294D002C40F078
S21408092084803649884700287FD0274EA8783368C1
S2140809305A7C904279DC32498847A878284B187048
S214080940002870D07268411E264B02EBC100186062
S21408095024490A6810680379A34264D9204600210E
S214080960284A9047002860D00134E4B2F0E7012B0B
S21408097015D162780B2A58D1E188002955D1184834
S2140809800378002B51D025791F4A2846648890475B
S21408099000284AD02846E1B21A4B984742E0022B74
S2140809A043D16078012802D003283ED130E0E088A1
S2140809B000283AD16388002B37D12079134930E0D4
S2140809C0400707206E060720280007202114080085
S2140809D0AA000720DC00072098000720B800072098
S2140809E07006072068060720CD050800660607205B
S2140809F0811408006C060720B5050800F1130800E6
S214080A00F1060800A10608004D060800451508006E
S214080A10E18851B9638843B92079284A90472079F4
S214080A202749884708B1012070BD2648037803F097
S214080A301F02012A1BD124490B78C3B1234E04791F
S214080A40366830680279A24211D920460021204D26
S214080A50A84760B1716851F82460F3689847014662
S214080A602046A84718B1B06880470028DBD1154A49
S214080A70117801F01F03022B1DD113480278D2B15A
S214080A80002412490B6818680279A24213D95D68D7
S214080A9055F82450E96888470D4B01462046984784
S214080AA048B1A86880470028BDD10134E4B2E8E719
S214080AB00621084AB0E6002070BD00BF511808009D
S214080AC095140800400707207006072068060720C8
S214080AD0CD0508005C1E0800EFF3108072B6BFF361
S214080AE05F8F0022811A024B48421A7048417047AD
S214080AF0E0000720034B044905224FF400201A7033
S214080B0008607047C4060720F0C10A4008B5024BC3
S214080B10186900B1804708BD4007072028B1034B75
S214080B2001221A70BFF35F8F62B67047E000072095
S214080B3010B50B4B0446187834B970B1094880478D
S214080B40094B9A78511E05E038B906498847064B7E
S214080B509A78511C9970054B984701490C7010BD3E
S214080B60C2060720D90A0800390707201D0B080007
S214080B7008B5094B9847094901220A60084B984767
S214080B80084A022010600848084A002303614361A7
S214080B908381137008BD00BFD90A080020C20A4026
S214080BA01D0B080060C10A4040070720C40607203E
S214080BB008B5084B032208481A7080470749084BAF
S214080BC001220A601A6008220A601A6005498847E6
S214080BD008BD00BFC4060720D90A080060C10A403D
S214080BE0F0C10A401D0B080070B5344B98473449CD
S214080BF001220A60334B984733480278032A04D107
S214080C00324880473249884770BD324E324D338865
S214080C10AC89E11A8CB2DCB9304802889B1899B2C4
S214080C200180E888884202D02D4A137853B1264BB3
S214080C30042222481A7080472A4A10211160C2F8F6
S214080C40901037E0696951B1884740B13480AC8963
S214080C503F2C04D9224E00253570402402E0204A55
S214080C60012010701B4B1C4914481D888E6880474D
S214080C701D4B761919680246890705D5114A90470B
S214080C8011490420087070BD1848C3B2A34208D2A0
S214080C90311801F15F4303F568010B7800F8013B52
S214080CA0F3E7104B0B49012064190C801860C3F851
S214080CB090001046034B984770BD00BFD90A08003D
S214080CC020C20A401D0B0800C40607200D0B0800AA
S214080CD0710B0800C606072040070720C006072035
S214080CE0C306072060C10A4030C10A400000182029
S214080CF010B5047D0346E0070ED56FF300041C7597
S214080D001C684CB1054850F82200C00548BF42F0A0
S214080D10800208469968A04710BD00BF00C10A4077
S214080D202DE9F843444B00F1FF39182505FB093532
S214080D300446287DC0077DD5EA68AE68B24252D020
S214080D40B61AB6F5803F01D8370402E04FF480366D
S214080D5000273A4B53F82410C9050FD553F824003A
S214080D600821C0F3021301FA03F0431E1E4216D0F0
S214080D700F43297D6FF34101297510E053F82400CD
S214080D80C0F3C121012908D153F824300821C3F340
S214080D90021001FA00F39E4201D847F014076B6868
S214080DA0DFF8B880200180449A18C8F8042024493F
S214080DB08847D8F80C30DB0611D447F02107C8F866
S214080DC00870EB684FF000719A19EA6001FA09F2A8
S214080DD01C4B2E611C499A618847BDE8F8831A4A5D
S214080DE09047E868A860154951F82430D9051CD5FD
S214080DF02A7D02F00200C1B2B9B1144A012042F8B5
S214080E002400303A52F82410114ACB0348BF114B3D
S214080E100C4948BF43F8240042F824004FF4805099
S214080E2000FA04F48C61BDE8F883284600212246BF
S214080E30094B9847BDE8F8837806072000C10A40A2
S214080E40D90A080000C00A401D0B080060C10A4005
S214080E50F0C10A4090C10A40F10C080000C30A40DD
S214080E6070B5174B98471749064601208847164815
S214080E70D0F80028054622F48044C0F80048D5F883
S214080E800418114B4C04FAD51868012120F4807216
S214080E901A6008251022042402209D6199619A612F
S214080EA09C619D609C609860D9609A60D3F8001831
S214080EB0304641F48042C3F80028044B984770BD7A
S214080EC0D90A0800310B080000C00A401D0B0800AC
S214080ED008B50A4BD3F8002822F48040C3F8000867
S214080EE0196841F480721A60D3F8000840F480410B
S214080EF0C3F800180020024B984708BD00C00A40F7
S214080F00310B0800F8B5864B9847864A48B95068AA
S214080F1010F0010105D172B6BFF35F8F82480170E9
S214080F20F8BD52687F4B510708D504229A60D3F85B
S214080F30041811F4405F40F0248204E058688207E1
S214080F4004D502209860794B9847F8BD5C68E4049D
S214080F5040F140817649102308220B600A60F03978
S214080F6008680C4610F0040F46D0724A13781BB176
S214080F7071488047714988472268C2F30A53082B8C
S214080F8004D06F4B984704226E4BB7E06E4E16F8A7
S214080F90014F6E4D6E4B701900F15F4101F5680206
S214080FA09E421470F3D16B4EB047664C042618B9AF
S214080FB0634A90472660F8BD266095F90000002829
S214080FC008DA654A654B00201080188059480221C7
S214080FD0017018E0E98800295DD0604B5E4A00255C
S214080FE0544915801D800120102508705C4A25602C
S214080FF090475C4B1D606CE00968C80705D55A4BDE
S2140810001A68D10701D55948E2E0594B1868820793
S21408101062D548480178012909D0022901D0042957
S21408102001D1454900E0464988474448D0E04B4A44
S2140810301C68464812888189C4F30A53D418A1420A
S2140810408068B8BFC2EB01034A499BB28418C8B28D
S214081050984206D211F8015B4748661830180570A2
S214081060F5E799183D4C8AB2402B2280374B05D1BC
S214081070394DD8882988891888420EDC9A815B6998
S214081080304C33B1984720B92D488047022121605B
S214081090F8BD0222226039489AE0988990420FD11A
S2140810A05A69284E0AB1904720B925488047022138
S2140810B03160F8BD21882B880022C8182880228035
S2140810C0204902240C6010240C60254B9847254ABA
S2140810D014602B498847F8BD1968080710D5194ABF
S2140810E0082111601B68D90700F14B811148017867
S2140810F0032940F046811B4B4FF400221A60F8BDC6
S2140811001A68D20666D50F49102008601B689B0728
S21408111000F13781074A10780128BCD00428E8E790
S214081120951C080000C00A40E000072031070800A8
S21408113020C20A40C40607200D0B0800710B0800E1
S214081140F50A080060C10A40FFFF1720400707207D
S2140811500700182065070800C0060720C6060720EF
S214081160D90A0800F0C10A40C0C10A40E90B0800C5
S21408117030C10A4000001820FFFFE7DFB10B080067
S2140811801D0B08001969C90700F18D807D4B186989
S2140811901A4610F0100F40F0DB80D2F80408794B9E
S2140811A0820740F1EE80D3F80028022022F480411E
S2140811B0C3F80018C3F80808D3F8002842F480419A
S2140811C0C3F80018D3F8043818054CBF6E486F48A3
S2140811D08047F8BD6E4C01216E4E4D1E182707FB42
S2140811E005604FF0007707FA05F5664BCAB21E6928
S2140811F0354215D05E68354212D067491401611829
S214081200CC6814F0010F40F0BC805D61CB681B0C05
S21408121003D0C168CB1AC360836010465F4B57E0A3
S2140812204FF4805606FA01F61B691E4236D0D4F8EB
S21408123090708B0017F0010F04F190050FD0276807
S21408124017F0010F0BD05649564D01245C505C51DF
S2140812504FF480445C500021534B9847F8BD2A68E9
S214081260D2041BD52568C5F30135BDB94C4A4FF4E1
S21408127080519950A2F508714E61027D65F382028D
S21408128002754A48195821F400721A504FF4002182
S214081290F0304FF4802219501A50F8BD013104344A
S2140812A0042999D116E05A68D2077FF56FAFD3F8AC
S2140812B0002822F48041C3F80018012210215A6140
S2140812C09961D3F8002842F48041C3F80018384BD7
S2140812D09847F8BD2B4B586810F008003FF452AFFB
S2140812E008249C6000212B4A4C1C182000FB012077
S2140812F02D4B0121E2B29847032C2146F3D12D4C01
S214081300A047204C206820F07F02226023682748E8
S21408131043F080012160026822F4CB5323F01C01BD
S21408132041F030020260036843F002010160E069A0
S214081330214B40F00102E26198472049042202232B
S2140813400A600B604FF48051A1611D4A90476CE615
S2140813505968C8067FF521AFD3F8002822F48041E3
S214081360C3F80018074BD3F804081A4610F4804F41
S21408137002D15968C907F5D5102301205361906139
S214081380A5E7F8BD00C00A40610E0800D10E0800A7
S21408139034C10A407806072000C30A40210D080019
S2140813A020C20A4060C10A40F10C080000C10A4089
S2140813B0310B0800F1060800D90A0800F0C10A40F7
S2140813C01D0B080000207047084B00F07F001A68C5
S2140813D022F0800119601A6822F07F0140EA0102B3
S2140813E01A60186840F080011960704700C00A400B
S2140813F0024B186800F07F00704700BF00C00A4024
S214081400024B186AC0F3CA00704700BF00C00A4003
S214081410024B186A8104880C704700BF00C00A4057
S214081420014B9860998170474007072000F00F022B
S214081430032A10B51CD8012101FA02F40D4BD8690D
S21408144020EA0400D86103F5807353F8220020F0E0
S214081450020443F82240084B501E182404FB0034AC
S214081460064B20469847217D6FF38201217510347C
S21408147010BD00BF00C00A4078060720F10C08001F
S214081480034B00F00F0053F82010C1F3C04070471C
S214081490C0C10A4070B500F00F04032C06463FD8BA
S2140814A0214B53F8240001033CD42049621E18251A
S2140814B005FB02152B7D03F00400C0B2002831D1CD
S2140814C0DA0730D41A4A90473306024614D5194923
S2140814D051F8243013F4405F0ED02A7D4FF4805321
S2140814E042F00401144A297542F8243003FA04F439
S2140814F0A2F5F8718C6110E0104850F8241021F419
S214081500007340F824304021603040F824104FF42F
S2140815100023903040F824301046094B984701E0E5
S214081520002070BD012070BDC0C10A4078060720A3
S214081530D90A080030C10A40F0C10A4000C10A4072
S2140815401D0B080000F00F00032838B545D8431EC9
S21408155018225A4322498B181D7D05F00404E4B26C
S2140815606CB16FF382051D751E4D4FF4805445F817
S214081570204004FA00F4A5F508756C6101241A4D9C
S21408158055F8205015F4002F1BD0184C54F820504E
S2140815906C0608D5164C402544F820504FF4802594
S2140815A0903444F820500F4C4FF4002544F820504F
S2140815B0A4F5907454F8205045F4007544F820506B
S2140815C000E044B1187D10F0010F04D06FF300005E
S2140815D0187589588847012038BD002038BD00BFD7
S2140815E07806072020C20A40C0C10A4030C10A4017
S2140815F060C10A402DE9F74F00F00F0ABAF1030F51
S214081600019193461E4643D8012505FA0AF0224A58
S214081610D16908403DD0214B53F82A2012F4002007
S21408162036D10AF1FF3418276743DFF8808008EBC5
S214081630070494F8149009F004015FFA81F9B9F1E7
S214081640000F26D116488047227D164B12EA050160
S21408165001D098471CE042F0010222750091984795
S214081660C4F804B0A66000980C99019BE06020615D
S21408167048F807101BB9D6F1010538BF0025227DAA
S214081680504665F34102227507498847012000E065
S2140816900020BDE8FE8F00BF00C00A40C0C10A4057
S2140816A0D90A08001D0B0800210D08007806072037
S2140816B02DE9F74300F00F04032C00F2BB805F4BC4
S2140816C0DD69012303FA04F62E4040F0B38011F0DA
S2140816D0030500F0AF80022D03D9032D40F0AA8041
S2140816E000E01E46564DC90255F8247000F08000EA
S2140816F027F4CB5323F01C0701F4C053C1B20029CA
S21408170014BF4FF480700020A2F5806189B2B1F54D
S2140817107C4F04D3082A05D951004A1E03E040F23C
S214081720FF7200E00F22B60006F00C01012606FA4A
S21408173004F6B2FA82F219430143C2F11C0341EAE5
S214081740031041F67C1202403A4345F82420B6B20C
S2140817500323D9B2A14215D9012101FA03F1374A68
S214081760D06901420CD0D0690E4320EA0101D1614C
S214081770344AB6B298188200116821F00200106048
S214081780013BE6E746FA04F3DB0705D40134E4B286
S214081790042CF7D101204EE04FF0010808FA04F8AF
S2140817A0651E18276F432849254ACD19287D00F05D
S2140817B0010C6FF300002875A0008218136843F028
S2140817C0020313601D4BD3F81C9048EA0908C3F8B7
S2140817D01C8003F59873C018036858030BD42B684D
S2140817E043B31068C10548BF44F08004E968012087
S2140817F0224698471EE0106840F400731360BCF158
S214081800000FC3D0E8682B6995F814E0C31AEB609C
S2140818101268C959D2056A68AD684CBF44F08000A2
S21408182020460091D218CEF34001EB1A074DA84780
S2140818300028ABD10020BDE8FE8300BF00C00A40E8
S21408184000C10A4040B0021078060720F5150800C7
S21408185000F00F0270B54FF00073561E03FA06F339
S214081860134914014B61134BE31800249C604FF492
S214081870805303FA02F34B61030607D40E4B182174
S21408188001FB063001210D4B984770BD0C480D4CE6
S214081890930019181C19086810F4405FEED04FF42E
S2140818A00055256008481D1828688004FAD4F2E711
S2140818B000C00A4000C30A4078060720F10C08005A
S2140818C030C10A40F0C10A40C0C10A4008B5044BFE
S2140818D098476020034988476020034A9047F8E7FE
S2140818E0ED1808004D1A0800331A0800264B4FF466
S2140818F0004210B50B205A60244CA0470C20A04785
S2140819000D20A0470E20A047214C3B204FF06051E9
S214081910A04755204FF06051A04756204FF0605121
S214081920A04768201B49A0475C201B49A0476020A9
S2140819304FF06051A0474FF00062184B4FF44071CB
S2140819401748984739204FF02051A0470B204FF0F2
S2140819508051A0472C204FF08051A04755204FF0CB
S2140819608051A04756204FF08051A04757204FF08F
S2140819708051A0472B204FF00061A0472A204FF047
S2140819800061A04710BD00BF501A0E40511C080049
S214081990691A080079000028010000282D1B080095
S2140819A0000E0E40B1F1805F426414D009D8B1B180
S2140819B0B1F1006F12D1036F016F0B4023EA0203E7
S2140819C00BE0B1F1405F0AD0B1F1605F07D0B1F12A
S2140819D0205F03D17047036F134303674260704765
S2140819E0D30741644CBF4166016612F00A0F14BF64
S2140819F001624162930701D4130701D5C0F880102D
S214081A0041610160704710B5029C41640CB14166A3
S214081A1000E001660BB1016500E041650AB10163AB
S214081A2000E041630161016010BDC06C7047806CC6
S214081A307047430903F5001101F2077200F01F0012
S214081A400121530201FA00F21A637047430903F5AD
S214081A50001101F2077200F01F000121530201FA7B
S214081A6000F25A6370470000F7B544090D4604F5BE
S214081A70001101F2077205F0F0415402B1F1205F3F
S214081A802CD015D8B1F1006F19D0B1F1805F44D1D0
S214081A9000F01F03012000FA03F16164226F41EA97
S214081AA00203EA07236761604CBF6166216635E07A
S214081AB0B1F1405F1CD0B1F1605F2ED118E000F0A4
S214081AC01F00012606FA00F7154B20463A469847A7
S214081AD0E9074CBF6766276630461FE000F01F011F
S214081AE00126204606FA01F12A460E4B9847F3E7E8
S214081AF0012605F0605200F01F0105EA0600009076
S214081B002046B2F16054634253EB040206FA01F130
S214081B10C5F38003044CA047DEE70020FEBD00BFE7
S214081B20A5190800E1190800071A080002F0F04392
S214081B30B3F1205F73B505460C4616461CD00BD885
S214081B40B3F1006F0FD0B3F1805F2AD16964006FDC
S214081B50014329676C600AE0B3F1405F10D0B3F127
S214081B60605F1ED10CE0194622460F4B9847F307D4
S214081B704CBF6C662C6601E00C4B9847012011E0C0
S214081B8006F060522146B2F16054634206F0010046
S214081B9053EB04020090C6F380032846044CA04783
S214081BA0ECE700207CBD00BFA5190800E119080075
S214081BB0071A080070B50F4B04460E4698470E499C
S214081BC0054620468847054012D00C4C54F80C0CA5
S214081BD0B0420AD154F8081C294206D0226830467A
S214081BE0904754F8083C25EA03051034002DEDD13B
S214081BF070BD00BF2B1A08002F1A0800D40607204D
S214081C0008B502480B21024B984708BD000E0E4047
S214081C10B51B080008B502480C21024B984708BDBA
S214081C2000100E40B51B080008B502480D21024BEF
S214081C30984708BD00120E40B51B080008B50248B4
S214081C400E21024B984708BD00140E40B51B08002D
S214081C502C2819D81F280E4B4FF0010208D802FA74
S214081C6000F0996900EA010282420FD018610DE07F
S214081C70203802FA00F0D3F8081100EA010282427E
S214081C8004D0C3F8000101E0012070470020704727
S214081C9000060E40024B187880F00100704700BF1F
S214081CA038070720FEE7000008B5164A164B9A4282
S214081CB001D116480AE00023134A154998188842A5
S214081CC0F7D21048195899500433F5E7114A90424C
S214081CD003D2002140F8041BF8E70F4820F06043C1
S214081CE023F07F0100F160420C4BB2F5801F99602B
S214081CF003D2986840F000519960094B9847094A02
S214081D009047FEE7901E08000000072018050720E9
S214081D1018050720580707200000080000ED00E017
S214081D20F11D0800CD1808002DE9F8439846234B06
S214081D3006461C680F46D4F84801914618B904F5BB
S214081D40A670C4F8480141681F2916DD1C4818B952
S214081D504FF0FF30BDE8F8834FF4C870AFF300804B
S214081D600028F5D0D4F84821002545600260C4F85C
S214081D704801C0F88851C0F88C51B6B144680122B1
S214081D8002FA04F2D0F8881100EB84031143022EFD
S214081D90C3F88890C0F888111C46C3F8088104D197
S214081DA0D0F88C311A43C0F88C2141688B1C4A1C29
S214081DB040F8237042600020BDE8F883641E0800DF
S214081DC00000000070B5084B084C0025E01A841087
S214081DD003EB8406043D1CB172599047013CF9E7B1
S214081DE0BDE8704000F04CB88C1E0800901E080035
S214081DF038B50E4D0E4B0024E81A8510AC4205D0B7
S214081E000B4951F8242090470134F7E700F02EF8E4
S214081E100849094A541AA5100024AC4205D0054BB7
S214081E2053F8240080470134F7E738BD781E0800C9
S214081E30781E0800781E0800801E0800024B13B1A2
S214081E40024800F005B8704700000000C51D0800ED
S214081E500146002002460346FFF766BF30303030A2
S214081E6030300000F000072043000000F8B500BF3F
S214081E70F8BC08BC9E4670473D1E08006D01080069
S214081E80F8B500BFF8BC08BC9E4670474501080078
S214081E902D05080025020800410208004502080032
S214081EA0C5030800C1010800150208006102080001
S214081EB04502080000000000400007203800072000
S214081EC014000720000007205400072030000720D1
S214081ED01201000202000040EB0304240001010284
S214081EE00301000009024300020100C03209040091
S214081EF00001020201000524001001042402020564
S214081F002406000105240103010705830340001089
S214081F1009040100020A00000007058102400000CB
S214081F200705020240000000506879736963616C17
S214081F30436F6D6D616E64657200457068656D65AA
S214081F4072616C6269740000000300000000000003
S214081F500000000000000000000000000000000074
S214081F600000000000000000000000000403090450
S214081F700100000000000000F0000720000000003C
S214081F8000000000DC03072044040720AC040720F8
S214081F900000000000000000000000000000000034
S214081FA00000000000000000000000000000000024
S214081FB000000000681E0800000000000000000086
S214081FC00000000000000000000000000000000004
S214081FD000000000000000000000000000000000F4
S214081FE000000000000000000000000000000000E4
S214081FF000000000000000000000000000000000D4
S21408200000000000000000000000000000000000C3
S21408201000000000000000000000000000000000B3
S21408202000000000000000000100000000000000A2
S2140820300E33CDAB34126DE6ECDE05000B00000067
S2140820400000000000000000000000000000000083
S2140820500000000000000000000000000000000073
S2140820600000000000000000000000000000000063
S2140820700000000000000000000000000000000053
S804081CA92E
