:0200000280007C
:1000000078270720B9310800B5310800B53108005C
:10001000B5310800B5310800B53108000000000016
:10002000000000000000000000000000B5310800E2
:10003000B531080000000000B5310800B5310800F6
:10004000B5310800B5310800B5310800B5310800F8
:10005000B5310800B5310800B5310800B5310800E8
:10006000B5310800B531080000000000B1300800CB
:10007000CD300800E930080005310800000000001C
:1000800000000000B5310800B5310800B5310800A6
:10009000B5310800B5310800B5310800B5310800A8
:1000A000B531080000000000B5310800B531080086
:1000B000B5310800B5310800B5310800B531080088
:1000C000B5310800B5310800B5310800B531080078
:1000D000B5310800B5310800B5310800B531080068
:1000E000BD170800B5310800B5310800B53108006A
:1000F000B531080008B50548054B191A062900D87E
:1001000008BD044A002AFBD09047F9E7583408009C
:100110005B3408000000000008B50748074B191AB7
:100120008A1002EBD273591000D108BD044A002A8C
:10013000FBD09047F9E700BF583408005834080056
:100140000000000010B5064C237843B9FFF7D2FF3A
:10015000044810B10448AFF300800121217010BDA4
:1001600018050720000000005834080008B5084BA7
:100170001BB108480849AFF300800848016811B175
:10018000074A02B19047BDE80840FFF7C5BF00BF6E
:1001900000000000583408001C05072058340800EF
:1001A0000000000010B440F2D051C2F207014FF03D
:1001B00000020A70104640F27C63C2F207031A8004
:1001C00040F2E853C2F207034FF0A1041C704FF055
:1001D00020045C705A809A804FF00204DC801A81FF
:1001E00040F23853C2F207034FF4E1321A6018713B
:1001F00058714FF0080098710B7803F10103DAB2DF
:100200000A704FF0010010BC704700BF40F2D0539D
:10021000C2F207031A7802F1FF30C1B219707047B9
:1002200040F24053C2F207031A7802F1FF30C1B224
:1002300019701B7840F2DC53C2F207034FF0000242
:100240001A7070474FF00000704700BF4FF0000079
:10025000704700BF40F26073C2F20703187810F0D5
:10026000800F20D000F06001202947D140F2607259
:10027000C2F207025378212B43D140F26070C2F2E0
:100280000700C18807293FD140F26073C2F207031B
:1002900040F23852C2F207029A604FF0070098818C
:1002A0004FF00100704700F0600120292FD140F28B
:1002B0006072C2F207025078202804D0222814BFAE
:1002C00000200120704740F26073C2F20703D88813
:1002D00007281FD140F26071C2F2070140F21D32BF
:1002E000C0F208020A6140F23853C2F207038B6081
:1002F0004FF0070088814FF0010070474FF0000079
:1003000070474FF0000070474FF0000070474FF00B
:10031000000070474FF00000704700BF704700BFFB
:1003200030B583B040F2E453C2F2070318780028D6
:1003300040F0DE8042F2B111C0F20801884760B19E
:1003400040F2D854C2F20704248842F20520C0F2D9
:100350000800804784420DD1CAE040F2D852C2F270
:100360000702148842F2F513C0F20803984784424A
:1003700000F0BE80EFF31085D5F1010538BF0025F0
:1003800072B6BFF35F8F40F2E401C2F207014FF093
:1003900000020A7040F24453C2F207031C7840F294
:1003A0004850C2F2070030F8141079BB40F2746371
:1003B000C2F207031A8802F101021A8042F2B11058
:1003C000C0F20800804730B940F27461C2F2070100
:1003D0000B88632B0DD942F2B112C0F2080290478C
:1003E000A0B140F27460C2F207000188B1F5487F05
:1003F0000CD2002D7CD040F2E403C2F207034FF090
:1004000001021A70BFF35F8F62B671E040F274634D
:10041000C2F207034FF000021A8040F27860C2F285
:100420000700017849B9944214BF0022012240F22A
:100430004453C2F207031A7003E0D4F1010438BF39
:10044000002440F2E450C2F207004FF001020270B3
:100450003DB140F2E405C2F207052A70BFF35F8F99
:1004600062B6254640F24851C2F2070131F8144005
:10047000403C18BF0124DCB142F2B112C0F20802C4
:10048000904750B142F20520C0F20800804740F288
:10049000D852C2F20702108011E042F2F511C0F208
:1004A0000801884740F2D853C2F20703188006E0DB
:1004B00040F2D853C2F207034FF00000188040F218
:1004C0004851C2F2070131F8153040F20950C0F22C
:1004D000080000904FF08100214640F24C54C2F2D7
:1004E000070404EB851242F2C144C0F20804A0479D
:1004F00003B030BD08B54FF0000040F22133C0F228
:100500000803984708BD00BF08B5E8B940F2445356
:10051000C2F207031978D1F1010138BF002140F27E
:100520004853C2F2070323F8110040F27861C2F287
:100530000701087040F2E452C2F20702107040F264
:100540002133C0F20803984708BD00BFEFF31083C2
:1005500072B6BFF35F8F40F2E402C2F207024FF0BF
:100560000001117040F2D450C2F20700028890B22C
:1005700040F2E051C2F20701097840F2CC52C2F2D7
:10058000070232F81110081A4BB940F2E403C2F224
:1005900007034FF001021A70BFF35F8F62B6704716
:1005A00008B540F24D53C0F208039847003018BF19
:1005B000012008BD10B582B0EFF31083D3F1010024
:1005C00038BF002072B6BFF35F8F40F2E402C2F280
:1005D00007024FF00001117040F2E054C2F207042C
:1005E000247840F23453C2F207031A786AB940F211
:1005F000D451C2F207010B889AB240F2CC51C2F238
:10060000070131F8143093420ED900284AD040F245
:10061000E400C2F207004FF001020270BFF35F8FE7
:1006200062B64FF000003FE040F2D452C2F207023F
:100630004FF0000111808C4214BF0021012140F2D3
:10064000E053C2F20703197040F23452C2F20702BB
:100650004FF00101117038B140F2E400C2F207001E
:100660000170BFF35F8F62B64FF0000040F2A152FD
:10067000C0F20802904740F2AD61C0F2080100915B
:100680004FF002004FF0010140F2F453C2F20703B1
:1006900003EB84124FF0400342F2C144C0F208045D
:1006A000A04701E04FF0000002B010BD10B582B0CD
:1006B00088BB40F2E053C2F207031878D0F101037F
:1006C00038BF0023A9B940F2AD64C0F20804009419
:1006D00010464FF0010140F2F452C2F2070202EB61
:1006E00083124FF0400342F2C144C0F20804A04715
:1006F00011E040F2CC52C2F2070222F813104FF080
:10070000000040F23451C2F20701087040F2B553C4
:10071000C0F20803984702B010BD00BF38B54FF0D3
:10072000000440F24053C2F207031C7040F2E45050
:10073000C2F20700047040F27861C2F207010C7047
:1007400040F24452C2F20702147040F24853C2F21F
:10075000070325461C805C8040F2D850C2F2070097
:100760000480204640F22131C0F20801884740F25F
:100770003452C2F20702147040F2E053C2F207038F
:100780001C7040F2CC50C2F20700048040F2D451F9
:10079000C2F207010C80204640F2B552C0F20802B6
:1007A000904798B140F24053C2F20703187800F125
:1007B0000100C1B219701A78012A0AD14FF0010064
:1007C00040F2DC53C2F20703187038BD4FF000004E
:1007D00038BD4FF0010038BD40F28463C2F2070318
:1007E000186801684A888818704700BF38B5054600
:1007F0000C4640F2D973C0F20803984702462878A5
:100800002818824211D94178042911D0A14205D17A
:1008100038BD417804290ED0A1420ED00378C0180B
:100820008242F6D84FF0000038BD4FF0000038BDCE
:100830004FF0000038BD4FF0000038BD70B50546E0
:100840000E4640F28C63C2F207031878002831D0BC
:1008500040F28461C2F207010A6814682379AB424E
:100860002BD940F29060C2F20700046040F2D971C7
:10087000C0F208018847844222D26278042A0DD14E
:10088000A378AB420AD1E178B14207D140F290633C
:10089000C2F207031C604FF0010070BD2278A4185B
:1008A000A042EAD840F29060C2F2070004604FF024
:1008B000000070BD4FF0000070BD4FF0000070BD33
:1008C0004FF0000070BD00BF08B540F26073C2F287
:1008D0000703588800F07F0042F2B911C0F2080106
:1008E000884708BD2DE9F041804640F63D03C0F23F
:1008F0000803984738B340F29060C2F207000468DA
:100900004FF0050640F2ED75C0F2080542F2C557FA
:10091000C0F2080720463146A847044638B180781F
:10092000E178A288B8470028F4D1BDE8F08140F210
:100930008461C2F207010A68536853F8280001680D
:100940008847BDE8F0814FF00000BDE8F08100BFAE
:100950002DE9F04104464FF0000140F63D03C0F29E
:1009600008039847002830D040F28460C2F20700A4
:1009700001684A6852F82480D8F80C30984701463C
:10098000204640F63D02C0F20802904708B340F20C
:100990009064C2F2070424684FF0050640F2ED753A
:1009A000C0F2080542F22927C0F208072046314666
:1009B000A847044610B18078B847F7E7D8F8040094
:1009C00080474FF00100BDE8F0814FF00000BDE826
:1009D000F0814FF00000BDE8F08100BF70B540F23B
:1009E0008C63C2F207031878D8B140F28461C2F276
:1009F00007010A681368187998B14FF0000440F6AF
:100A00005116C0F2080640F28465C2F2070520467E
:100A1000B04704F10104E4B229680A681379A342DB
:100A2000F5D840F28C60C2F207004FF0000101706F
:100A300040F28A63C2F207034FF001021A8070BDD0
:100A400038B540F28C63C2F207031878D8B140F28F
:100A50008461C2F207010B681A68107998B14FF0EF
:100A6000000440F28465C2F207055B6853F8241065
:100A70000A6902B1904704F10104E4B22B681868D6
:100A80000179A142F1D838BDF8B540F26073C2F2E5
:100A900007034FF000029A811A615A61187810F02A
:100AA000800F00F0F08240F26072C2F20702D2883A
:100AB000002A40F0ED82DAE210F01F0040F0B98029
:100AC00040F26071C2F207014B78062B18D0082B58
:100AD00000F09C80002B40F0AC80022A0DD140F247
:100AE0008A60C2F207004FF0020142F21923C0F2FD
:100AF000080398474FF001003EE24FF000003BE250
:100B000040F26070C2F2070041884FEA1123022BC5
:100B100010D0032B25D0012B6CD140F22802C2F259
:100B2000070211680846097842F21923C0F2080347
:100B300098474FE0C9B240F22800C2F207000368AC
:100B40005A7C8A4259D98B48436853F83110084679
:100B50004988894A9047894883684FF00201597053
:100B600038E0C8B203284BD8DFE810F004000A00D0
:100B700097029B0282484FF004017F4A904729E088
:100B800080494FF00C044FF0000304F1FF3505F0ED
:100B900001007D4ACD5C22F8025F03F10103012CC4
:100BA00000F283820EE002F10200CD5C558003F179
:100BB000010302F10402CD5C458003F10103D8B2C8
:100BC000A042F0D34FEA440101F102016E480170E6
:100BD000694B984740F26070C2F20700C28883896F
:100BE000934210D940F26071C2F207018A814FF03E
:100BF0000100C1E14FF00000BEE14FF00000BBE199
:100C00004FF00000B8E14FF00100B5E1012A0DD12D
:100C100040F28C60C2F207004FF0010142F219224B
:100C2000C0F2080290474FF00100A5E14FF000002C
:100C3000A2E1012834D140F26071C2F207014B7881
:100C40000A2B2DD1012A1FD150480378FBB14B4C00
:100C500024794F4D2D6829680A79A2421AD9204675
:100C60004FF000014B4B9847B8B1686850F824101A
:100C7000CA689047484B187018464FF001013E4A29
:100C800090474FF0010077E14FF0000074E14FF022
:100C9000000071E14FF000006EE14FF000006BE1E9
:100CA000022840F06B8140F26070C2F20700417888
:100CB000002940F05981022A0DD1304A1079374B72
:100CC00098473749088008464FF002012A4A904762
:100CD0004FF0010050E14FF000004DE110F01F0314
:100CE00040F0C68040F26071C2F207014A7802F11A
:100CF000FF30082800F2BC80DFE810F01E00BA00C8
:100D00003901BA000900BA00BA00BA00540040F232
:100D10006070C2F20700C18859B940F26073C2F234
:100D2000070340F6C902C0F208021A614FF0010041
:100D300022E14FF000001FE140F26070C2F20700B4
:100D4000C18889B940F26073C2F207035A88012A48
:100D50000DD140F28A60C2F20700018821F002033F
:100D600003804FF0010007E14FF0000004E14FF075
:100D7000000001E128000720192208006007072071
:100D8000E0000720AC000720BC0007208C060720ED
:100D9000840607203D080800800607208D220800F1
:100DA0008806072040F26072C2F20702D08800284D
:100DB0004CD142F2E511C0F208018847002848D022
:100DC00040F26073C2F207039A7840F22800C2F240
:100DD000070001684B7C9A423EDC40F6DD12C0F20F
:100DE0000802904740F26070C2F20700817840F23A
:100DF0008C63C2F20703197089B301F1FF3340F22B
:100E00002802C2F20702526802EBC30040F284617A
:100E1000C2F20701086052F833301A7912B34FF06A
:100E20000004264640F6E505C0F208050F462046B8
:100E30003146A847C8B104F10104E4B2386801683A
:100E40000B79A342F3D84FF0010095E04FF000007A
:100E500092E04FF000008FE04FF000008CE04FF088
:100E6000010089E04FF0010086E04FF0000083E0D0
:100E7000012B2DD140F26071C2F207014A780B2A92
:100E800026D140F26070C2F20700C288BAB940F2BF
:100E90008C63C2F207031978A1B140F26075C2F207
:100EA00007052C796D88204640F65112C0F20802E1
:100EB000904750B12046E9B2834B98475CE04FF031
:100EC000000059E04FF0000056E04FF0000053E002
:100ED000022B53D140F26073C2F207035878012805
:100EE00002D0032846D11CE040F26073C2F207032F
:100EF000D88880B940F26071C2F207014A886AB9A5
:100F000040F26073C2F20703187942F2CD31C0F2A9
:100F10000801884730E04FF000002DE04FF000005E
:100F20002AE040F26071C2F20701CA88B2B940F209
:100F30006073C2F20703588898B940F26074C2F235
:100F40000704207942F6B521C0F2080188472079CC
:100F500042F2A522C0F2080290470DE04FF00000D7
:100F60000AE04FF0000007E04FF0000004E04FF00F
:100F7000000001E04FF0000000287BD140F26070DB
:100F8000C2F20700027802F01F03012B2DD140F2BC
:100F90008C61C2F20701087838B340F26074C2F283
:100FA0000704247940F28465C2F207052D682A6897
:100FB0001379A34219D920464FF0000140F63D02B3
:100FC000C0F20802904780B1696851F82450E8687F
:100FD00080470146204640F63D03C0F2080398478B
:100FE00018B1AA689047002847D140F26071C2F258
:100FF0000701087800F01F03022B41D140F28C62F8
:10100000C2F20702117831B340F28460C2F20700E5
:1010100003681A68117909B34FF0000440F63D06E1
:10102000C0F2080640F28467C2F207075D6855F80F
:101030002450EB68984701462046B04788B1A8681D
:10104000804788B904F10104E4B23B681A68117959
:10105000A142EBD8F8BD4FF00000F8BD4FF0000002
:10106000F8BD4FF00000F8BD4FF00100F8BD4FF0A3
:101070000000F8BD4FF00100F8BD4FF00100F8BDD1
:101080004FF00000F8BD10F0600F7FF477AF25E659
:1010900010F0600F7FF472AF0EE54FF011040B49B2
:1010A00071E54FF006040A496DE540B200283FF4AF
:1010B0007AADC85C22F8020F03F10103D8B2A04256
:1010C000FFF471AD7EE500BFE50808009800072039
:1010D000243408000346002849D140F2DE62C2F2FF
:1010E0000702117800293CD0EFF3108172B6BFF3EC
:1010F0005F8F40F2E402C2F20702107040F25872B1
:10110000C2F20702907800F1FF30907049BB40F2C4
:10111000E402C2F207024FF001011170BFF35F8FCA
:1011200062B61EE0EFF3108172B6BFF35F8F40F23C
:10113000E402C2F207024FF00000107040F2587251
:10114000C2F20702907800F10100907049B940F2B4
:10115000E402C2F207024FF001011170BFF35F8F8A
:1011600062B640F2DE60C2F207000370704740F2E0
:10117000DE62C2F2070210780028D3D0F1E700BF88
:10118000EFF3108272B6BFF35F8F40F2E403C2F256
:1011900007034FF0000119704CF22020C4F20A003E
:1011A0004FF0010101603AB940F2E403C2F20703D3
:1011B0001970BFF35F8F62B64CF26010C4F20A0080
:1011C0004FF00201016040F26072C2F207024FF07C
:1011D000000313615361938140F2E061C2F20701A1
:1011E0000B70704740F2E063C2F207034FF0050254
:1011F0001A704CF2F010C4F20A004FF400210160A2
:10120000704700BF40F2E063C2F207034FF00302F1
:101210001A70EFF3108072B6BFF35F8F40F2E401F3
:10122000C2F207014FF000030B704CF26012C4F2DF
:101230000A024FF0010111604CF2F013C4F20A03EC
:1012400019604FF008011160196048B940F2E400DC
:10125000C2F207004FF001020270BFF35F8F62B667
:10126000704700BF08B540F26073C2F20703186907
:1012700000B1804708BD00BF70B5EFF3108272B6B1
:10128000BFF35F8F40F2E403C2F207034FF00001A7
:1012900019704CF22020C4F20A004FF001010160E5
:1012A0003AB940F2E403C2F207031970BFF35F8F4B
:1012B00062B640F2E060C2F20700017803290AD169
:1012C00041F26522C0F20802904741F28110C0F25B
:1012D0000800804770BD40F2E264C2F20704238830
:1012E00040F26072C2F207029089C11A8CB2002CDF
:1012F00055D140F2DC62C2F2070210881B1899B285
:10130000118040F26072C2F20702D088884205D094
:1013100040F2DF63C2F20703197861B340F2E06084
:10132000C2F207004FF004020270EFF3108172B6B0
:10133000BFF35F8F40F2E403C2F207034FF00000F7
:1013400018704CF26013C4F20A034FF010021A60D6
:101350004CF2F010C4F20A000260002940F0A780AD
:1013600040F2E401C2F207014FF001030B70BFF33A
:101370005F8F62B670BD40F26075C2F207056E699C
:10138000CEB1B047B8B140F2E264C2F207044FF008
:101390000002228040F26070C2F2070084893F2C74
:1013A00009D940F2DF63C2F207034FF00001197060
:1013B0004FF0400406E040F2DF65C2F207054FF04F
:1013C00001062E7040F26072C2F20702906840F28D
:1013D000E263C2F207031E88EFF31081D1F1010529
:1013E00038BF002572B6BFF35F8F40F2E402C2F24D
:1013F00007024FF0000313704CF23011C4F20A01DF
:101400000A6812F0020F01D19CB935E04DB140F2EB
:10141000E400C2F207004FF001020270BFF35F8FD9
:1014200062B640F2E061C2F207014FF004030B70B4
:1014300070BD82194FF00003C2F218036FEA030077
:10144000011901F0010002F1FF3212F8011F03F847
:10145000011BD9B2A1422BD30EE002F10100527858
:10146000194601F8012B00F101024078587001F192
:101470000103D9B2A142F0D3A41940F2E263C2F24F
:1014800007031C804CF26010C4F20A004FF0010206
:1014900002604CF2F011C4F20A010A603DB140F260
:1014A000E403C2F207031A70BFF35F8F62B670BD28
:1014B00040B20028D1D012F8011F03F8011BD8B2A6
:1014C000A042CAD3D8E700BF38B50346047D14F064
:1014D000010F13D0047D6FF30004047504686CB130
:1014E0004FF44145C4F20A0555F8220010F4807FFC
:1014F00018BF42F0800208469968A04738BD00BF77
:1015000008B500F00F0202F1FF3000EB400140F29D
:101510009463C2F2070303EBC1004FF0010141F2F3
:10152000C943C0F20803984708BD00BFF8B502469A
:1015300000F1FF3101EB410040F29463C2F2070376
:1015400003EBC003187D10F0010F00F0C680DC68CB
:101550009D68AC4200F082802D1BB5F5803F92BFA4
:101560002E044FF4803500264FF44140C4F20A00A7
:1015700000EB820C50F8227017F4807F11D050F8E5
:101580002270C7F302104FF0080707FA00F000F1CD
:10159000FF30054217D03E431F7D6FF341071F7593
:1015A00011E050F82200C0F3C127012F09D1DCF867
:1015B0000000C0F302104FF0080707FA00F0854260
:1015C00001D846F014064FF44340C4F20A0000EB81
:1015D00002105F683C194460EFF31087D7F1010CEB
:1015E00038BF4FF0000C72B6BFF35F8F40F2E404D7
:1015F000C2F207044FF000072770C46814F0100F00
:101600001DD146F021068660DA685019D8601D6148
:101610004FF0007303FA01F14FF44042C4F20A02A2
:101620009161BCF1000F58D040F2E400C2F2070013
:101630004FF001030370BFF35F8F62B6F8BDBCF1DA
:10164000000F09D040F2E401C2F207014FF001009F
:101650000870BFF35F8F62B6D96899604FF441405C
:10166000C4F20A0050F8221011F4807F2DD0187DAA
:1016700000F00201C8B240B34CF26010C4F20A009C
:101680004FF0010140F822104CF23013C4F20A036B
:1016900053F8220010F4803F05D04CF29013C4F2AE
:1016A0000A0343F822104CF2F010C4F20A004FF083
:1016B000010140F822104FF4805303FA02F24FF474
:1016C0004040C4F20A008261F8BD18464FF00001A4
:1016D00041F2C943C0F208039847F8BD38B5EFF3AB
:1016E000108472B6BFF35F8F40F2E403C2F20703C7
:1016F0004FF000021A704FF0010041F2D501C0F224
:10170000080188474FF44040C4F20A00D0F800585E
:1017100025F48043C0F800384FF44042C4F20A0276
:10172000D2F8041811F4804FFAD04FF44043C4F2B9
:101730000A03186820F480751D604FF008059D614C
:101740004FF0010199614FF010029A614FF00400CF
:1017500098619D6098604FF002009860D9609A602F
:10176000D3F8002842F48040C3F800083CB940F2A6
:10177000E403C2F207031970BFF35F8F62B638BD8E
:1017800008B54FF44043C4F20A03D3F8002822F40A
:101790008040C3F80008196841F480721A60D3F8D9
:1017A000000840F48041C3F800184FF0000041F2F7
:1017B000D503C0F20803984708BD00BF70B543F2D7
:1017C000A513C0F20803984790B94FF44040C4F203
:1017D0000A00416811F0010F0AD172B6BFF35F8FA2
:1017E00040F2E400C2F207004FF00002027070BD48
:1017F0004FF44042C4F20A02536813F0040F12D0AF
:101800004FF44040C4F20A004FF004028260D0F866
:10181000041811F4405F40F0BD8440F64123C0F24B
:101820000803984770BD4FF44040C4F20A00416875
:1018300011F0020F0CD04FF44040C4F20A004FF0F8
:101840000201816040F64123C0F20803984770BD51
:101850004FF44042C4F20A02536813F4805F00F070
:1018600019844CF22020C4F20A004FF010010160EC
:101870004FF0080202604CF23013C4F20A031868F9
:1018800010F0040F00F0D98040F2E061C2F20701CD
:101890000A784AB141F26520C0F20800804741F25F
:1018A0008113C0F2080398474CF23011C4F20A01C8
:1018B0000A68C2F30A5008280CD041F2E511C0F2C0
:1018C000080188474CF26013C4F20A034FF0040287
:1018D0001A6070BD4FF00003C2F21803197840F28D
:1018E0006070C2F2070001704FF00102C2F21802EC
:1018F000137843704FF00201C2F218010A78827027
:101900004FF00303C2F218031978C1704FF00402BC
:10191000C2F21802137803714FF00501C2F21801E8
:101920000A7842714FF00603C2F2180319788171E8
:101930004FF00702C2F218021378C37140F68920F3
:10194000C0F20800804760B941F2E512C0F2080217
:1019500090474CF26013C4F20A034FF00400186081
:1019600070BD4CF26011C4F20A014FF004020A602B
:1019700040F26073C2F2070393F90000002818DAFE
:101980004FF0000040F2DC61C2F20701088040F233
:10199000E262C2F20702108040F2E063C2F2070383
:1019A0004FF00200187041F27921C0F20801884717
:1019B00070BD40F26071C2F20701CA882AB941F2D3
:1019C0000523C0F20803984770BD4FF00003184686
:1019D00040F2DC61C2F207010B8040F2E262C2F227
:1019E0000702138040F2E063C2F207034FF00101E7
:1019F00019704CF26013C4F20A034FF010021A601F
:101A0000EFF3108172B6BFF35F8F40F2E403C2F2CE
:101A1000070318704CF2F010C4F20A0002600029AB
:101A200040F0B88340F2E401C2F207014FF0010236
:101A30000A70BFF35F8F62B670BD4CF23011C4F212
:101A40000A010A6812F0010F0DD04CF2C013C4F263
:101A50000A03186810F0010F05D041F27923C0F293
:101A60000803984770BD4CF23011C4F20A010A68AD
:101A700012F0020F00F0DE8040F2E060C2F20700D8
:101A80000178012914D0022901D0042905D141F29D
:101A90006522C0F20802904704E041F2E511C0F26D
:101AA0000801884741F28110C0F20800804770BDEC
:101AB0004CF23014C4F20A042668C6F30A5440F209
:101AC0006073C2F20703988940F2E262C2F2070231
:101AD000168831198842AEBFA4B2C6EB000084B2AA
:101AE00040F26073C2F2070398688219B4B34FF0F2
:101AF0000003C2F218036FEA0301081900F00101A4
:101B000013F8010B02F8010BD8B2A042C0F04383D6
:101B10000EE0184610F8015B114601F8015B5D7894
:101B200000F10103557001F10102D8B2A042F0D3D7
:101B3000A619B6B240F2E262C2F207021680402C49
:101B40000CD140F26073C2F20703D98840F2DC6026
:101B5000C2F2070002889319994222DC40F26071B8
:101B6000C2F207018E814A6972B1904760B941F2B1
:101B7000E512C0F2080290474CF26010C4F20A006D
:101B80004FF00203036070BD4CF26010C4F20A0013
:101B90004FF00203036041F20521C0F208018847BB
:101BA00070BDB0498889B04221D1AE4A53694BB962
:101BB000AD4A90474CF26010C4F20A004FF00203A5
:101BC000036070BD984748B9A74880474CF260133E
:101BD000C4F20A034FF00201196070BDA34AA44B7E
:101BE00018881188401810804FF000021A804CF2BB
:101BF0006013C4F20A034FF0020119604FF01002A3
:101C00001A60EFF3108172B6BFF35F8F994B4FF0FC
:101C1000000018704CF2F013C4F20A031A60002995
:101C200040F0B88293494FF001020A70BFF35F8F12
:101C300062B670BD4CF23013C4F20A03186810F09B
:101C4000080F1FD04CF26010C4F20A004FF00801D8
:101C500001604CF23012C4F20A02136813F0010F53
:101C600040F0988240F2E060C2F207000178032958
:101C700040F090824CF2F013C4F20A034FF40022B9
:101C80001A6070BD4CF23011C4F20A010A6812F0F9
:101C9000100F00F0FF814CF26013C4F20A034FF002
:101CA000100018604CF23011C4F20A010A6812F0F8
:101CB000020F40F06F8240F2E063C2F2070318782F
:101CC000012805D141F20523C0F20803984770BDF1
:101CD000042840F05F824CF2F011C4F20A014FF484
:101CE00000220A6070BD4FF44043C4F20A035A68F0
:101CF00012F0006F30D04FF003004FF000645E4AE6
:101D00000DE04FF001004FF0007440F29462C2F217
:101D1000070204E04FF002004FF08064574A4FF48E
:101D20004341C4F20A0101EB0013D96811F0010F1D
:101D300040F030824FF44041C4F20A014C61DB684C
:101D40001B0C03D0D168CB1AD360936041F22D52A3
:101D5000C0F20802904770BD4FF44040C4F20A0040
:101D6000016911F4004F00F08D804CF2CC13C4F2E5
:101D70000A031A6812F0010F2FD04CF23C10C4F283
:101D80000A00016811F0010F27D04FF003024FF055
:101D90000C0339480AE04FF001024FF004033848C1
:101DA00004E04FF002024FF0080334484CF22021C7
:101DB000C4F20A014FF001055D504CF26014C4F208
:101DC0000A041D514FF480445C504FF0000141F271
:101DD000C943C0F20803984770BD4CF2CC13C4F25B
:101DE0000A031A6812F4805F4CD04CF23C10C4F223
:101DF0000A00016811F4405F44D14FF00C034FF426
:101E000000411D4A0AE04FF004034FF400511C4A00
:101E100004E04FF008034FF48041184A4CF22020B0
:101E2000C4F20A004FF480541C504FF44040C4F2F6
:101E30000A004161117D6FF3820111754FF4414237
:101E4000C4F20A02985820F4007199504CF2F01232
:101E5000C4F20A024FF4002098504FF480219950A8
:101E600070BD00BF60070720E5110800DC060720F1
:101E7000E2060720E4000720C4060720AC0607207E
:101E8000940607204FF44043C4F20A035A6812F044
:101E9000080F6CD04FF44044C4F20A044FF0080518
:101EA000A56040F29466C2F2070630464FF0010189
:101EB0000A4641F2C945C0F20805A84706F11800D4
:101EC0004FF001014FF00202A84706F130004FF039
:101ED00001014FF00302A84740F6DD12C0F20802EC
:101EE0009047206820F07F032360216841F0800242
:101EF00022604FF44140C4F20A00036823F4CB513E
:101F000021F01C0242F030030360016841F002023C
:101F10000260E06940F00103E361EFF3108272B602
:101F2000BFF35F8F40F2E400C2F207004FF0000100
:101F300001704CF2F013C4F20A034FF00400186071
:101F40004FF0020119604FF48053A3614AB940F287
:101F5000E400C2F207004FF001020270BFF35F8F8E
:101F600062B641F28111C0F20801884770BD4FF49A
:101F70004040C4F20A00016911F0010F25D04FF46E
:101F80004043C4F20A035A6812F0010F1DD04FF407
:101F90004041C4F20A01D1F8002822F48040C1F87F
:101FA00000084FF001034B614FF010028A61D1F835
:101FB000000840F48043C1F800384FF0000041F2BF
:101FC000D501C0F20801884770BD4FF44040C4F20B
:101FD0000A00016911F0100F2FD04FF44043C4F2F2
:101FE0000A035A6812F0100F27D04FF44041C4F290
:101FF0000A01D1F8002822F48040C1F800084FF40B
:102000004043C4F20A0303E05A6812F0010F04D1FE
:10201000D3F8041811F4804FF6D04FF44041C4F2C5
:102020000A014FF0100048614FF00100886141F251
:10203000D503C0F20803984770BD4FF44040C4F286
:102040000A00D0F8041811F0020F00F0A3804FF43A
:102050004043C4F20A03D3F8002822F48040C3F8B6
:1020600000084FF00201C3F80818D3F8002842F422
:102070008040C3F80008D3F8043813F4006F19BF88
:1020800041F2DD63C0F2080341F28173C0F208033C
:10209000984770BD4FF44040C4F20A00016911F046
:1020A000007F08D04FF44043C4F20A035A6812F08C
:1020B000007F7FF426AE4FF44040C4F20A0001696D
:1020C00011F4005F21D04CF2C413C4F20A031A6861
:1020D00012F0010F10D14CF2C413C4F20A031A68B3
:1020E00012F4805F11D04CF23410C4F20A0001687F
:1020F00011F4405F09D186E64CF23410C4F20A00B4
:10210000016811F0010FE6D045E64FF44043C4F2F8
:102110000A031A6912F0806F08D04FF44040C4F2ED
:102120000A00416811F0806F7FF4F4AD4FF4404332
:10213000C4F20A031A6912F4804F21D04CF2C8107D
:10214000C4F20A00016811F0010F10D14CF2C8105E
:10215000C4F20A00016811F4805F11D04CF2381308
:10216000C4F20A031A6812F4405F09D151E64CF236
:102170003813C4F20A031A6812F0010FE6D010E611
:102180004FF44040C4F20A00016911F0006F7FF47F
:10219000AAADE1E570BD49B200293FF4BAAC13F82D
:1021A000010B02F8010BD9B2A142FFF4B2ACBFE4BB
:1021B0004FF00000704700BF4FF44043C4F20A03E1
:1021C0001A6822F0800119601A6800F07F0022F07E
:1021D0007F0140EA01021A60186840F0800119602E
:1021E000704700BF4FF44043C4F20A03186800F080
:1021F0007F0070474FF44043C4F20A03186AC0F3EB
:10220000CA0070474FF44043C4F20A03186A4FEA09
:1022100080414FEA9140704740F26073C2F2070379
:1022200098609981704700BF10B500F00F04032C2F
:102230002AD84FF44043C4F20A03D9694FF001028F
:1022400002FA04F221EA0201D9614FF44143C4F2D7
:102250000A0353F8242022F0020143F8241041F22B
:102260000153C0F20803984704F1FF3404EB440023
:1022700040F29462C2F2070202EBC004217D6FF3C8
:102280008201217504F1100410BD00BF00F00F00A1
:102290004CF2C013C4F20A0353F82010C1F3C0403B
:1022A000704700BF30B400F00F03032B7AD84CF214
:1022B000C012C4F20A0252F8231011F4002F74D194
:1022C00003F1FF3404EB440240F29461C2F20701CF
:1022D00001EBC202117D01F00404E4B2002C67D1CD
:1022E00011F0010F67D1EFF31085D5F1010538BF6B
:1022F000002572B6BFF35F8F40F2E401C2F207011E
:102300000C7010F0800F27D04CF23010C4F20A008D
:1023100050F8231011F4405F1ED0107D40F00401EE
:1023200011754CF2F010C4F20A004FF4805240F8DC
:10233000232002FA03F34FF44041C4F20A018B61F7
:10234000E5B34FF0010040F2E402C2F20702107060
:10235000BFF35F8F62B636E04FF44142C4F20A0227
:1023600052F8230020F4007142F823104CF260125E
:10237000C4F20A024FF0400042F823004CF2F0127F
:10238000C4F20A024FF4002142F82310CDB14FF0FD
:10239000010040F2E403C2F207031870BFF35F8F3D
:1023A00062B610E04FF000000DE04FF001000AE0CF
:1023B0004FF0010007E04FF0000004E04FF0010093
:1023C00001E04FF0010030BC704700BF08B500F0DD
:1023D0000F0003285FD800F1FF3303EB430140F205
:1023E0009462C2F2070202EBC103197D01F00402FC
:1023F000D1B2002955D01A7D6FF382021A754CF2C2
:102400002021C4F20A014FF4805241F8202002FA40
:1024100000F14FF44042C4F20A0251614FEA8002D7
:102420004CF2C011C4F20A0151F8200010F4002F40
:1024300024D04CF23011C4F20A01505810F0400F71
:102440000DD04CF26011C4F20A014FF04000505020
:102450004CF2F011C4F20A014FF4802050504CF2BB
:102460002021C4F20A014FF4002050504FF44141A2
:10247000C4F20A01505840F4007050501A7D12F016
:10248000010F0BD0197D6FF3000119751B68984778
:102490004FF0010008BD4FF0000008BD4FF00100F3
:1024A00008BD4FEA80024CF2C011C4F20A0151F893
:1024B000200010F4002FBCD14FF0010008BD00BF78
:1024C000F8B500F00F0003286CD84FF44044C4F274
:1024D0000A04E4694FF0010505FA00F5254264D0CD
:1024E0004CF2C014C4F20A0454F8204014F4002F33
:1024F0005ED100F1FF3505EB450640F29464C2F26F
:10250000070404EBC604257D05F00406F6B2002E90
:1025100051D1EFF31087D7F1010638BF002672B60C
:10252000BFF35F8F40F2E407C2F207074FF0000CE1
:1025300087F800C015F0010F09D0002E3ED04FF0F3
:1025400001033B70BFF35F8F62B66046F8BD257D27
:1025500045F0010525754EB140F2E405C2F20705CC
:102560004FF001062E70BFF35F8F62B66260A3600A
:102570004FF00002E2602261069A226021B9D3F195
:10258000010338BF002301E04FF00103217D63F315
:102590004101217541F22D52C0F2080290474FF0DF
:1025A0000100F8BD4FF00000F8BD4FF00000F8BD8D
:1025B0004FF00000F8BD4FF00000F8BD4FF00000F4
:1025C000F8BD00BF2DE9F04F85B000F00F04032CDB
:1025D00000F2FB804FF44043C4F20A03DB694FF082
:1025E000010505FA04F51D4240F0F28011F00303E5
:1025F00000F0F180022B03D9032B40F0EC8002E0C5
:102600004FF0010501E04FF000054FF44147C4F2DF
:102610000A0707EB840657F8243023F4CB5727F03A
:102620001C074FEAC12101F4C05100F080000028CE
:1026300014BF4FF480700020A2F580639BB2B3F505
:102640007C4F06D3082A07D94FEA420303F1FF3231
:1026500004E040F2FF7201E04FF00F02B2FA82F2A2
:1026600041EA85050543C2F11C0145EA011041F626
:10267000741303403B4333604FF0010606FA04F63F
:10268000B7B2022C00F2B0804CF20C11C4F20A0175
:102690004FF003034FF44042C4F20A024FF001002E
:1026A0006FEA0405EE1806EA000CD66900FA03F595
:1026B000354200F0BF81B1E1A046FFE7D46900FADE
:1026C00003F6264209D03743BFB2D46924EA06068E
:1026D000D6610D6825F002040C6003F1FF33A1F10F
:1026E0000409D46900FA03F5254200F0D881C8E155
:1026F00047FA04F010F0010F5AD004F1FF3303EB56
:10270000430C09EBCC05297D01F0010203926FF324
:10271000000129754FEA84018A1956F8240040F017
:10272000020346F82430D8F81C304FF0010000FABC
:1027300004FB4BEA0303C8F81C305AF8243013F4A6
:10274000802F10D12B68002B48D0116811F4807FA6
:1027500018BF44F080044FF00100E9682246984712
:102760004FF000005AE056F8242042F4007346F877
:102770002430039AE2B1EA682B69D31AEB608959D5
:1027800011F4807F14BF44F080002046297DD5F8E5
:1027900004E0AD6859F83C200092C1F340010EEB13
:1027A0000302EB1A42F2C145C0F20805A847C0B1C6
:1027B00004F10104E4B247FA04F010F0010F00F054
:1027C0002681D5E04FF0010028E04FF0000025E021
:1027D0004FF0000022E04FF000001FE04FF000003B
:1027E0001CE04FF0000019E040F29469C2F20709C2
:1027F0004FF44146C4F20A064FF44048C4F20A08B6
:102800004CF2301AC4F20A0AC4F1030B0BF0010BAC
:1028100047FA04F212F0010F4CD002E005B0BDE817
:10282000F08F04F1FF3000EB400509EBC5052B7D6F
:1028300003F0010C6FF300032B754FEA84039A1920
:10284000116841F002001060D8F81C104FF0010030
:1028500000FA04F00143C8F81C105344186810F43F
:10286000802F3FF46FAF116841F400731360BCF127
:10287000000F1FD0E8682969431AEB60126812F450
:10288000807F12D013E0297D6A68D5F808E02D68B2
:102890000095C1F34001D218C3EB0E0342F2C145CB
:1028A000C0F20805A84728B99BE72046EBE744F0AB
:1028B0008000E8E704F10104E4B2042C82D04FFA6E
:1028C0008BF000283FF414AF47FA04F313F0010F24
:1028D00047D004F1FF3101EB410209EBC205287D2D
:1028E00000F001016FF3000028754FEA84039A1984
:1028F000106840F002001060D8F81C004FF0010B87
:102900000BFA04FC4CEA0000C8F81C005344186899
:1029100010F4802F3FF416AF136843F4007010607A
:10292000F9B1E9682B69CB1AEB60126812F4807F69
:1029300012D013E0297D6A68D5F808E02D6800956B
:10294000C1F34001D218C3EB0E0342F2C145C0F2FD
:102950000805A84728B944E72046EBE744F0800083
:10296000E8E704F10104E4B2042C7FF4C1AE29E7E6
:1029700004F1FF3303EB430C09EBCC05297D01F097
:10298000010203926FF3000129754FEA84018A194D
:1029900056F8240040F0020346F82430D8F81C30E2
:1029A0004FF0010000FA04FB4BEA0303C8F81C30A7
:1029B0005AF8240010F4802F3FF4C4AE56F82420B7
:1029C00042F4007346F82430039800B3EA682B6998
:1029D000D31AEB60895911F4807F13D014E0297D5C
:1029E000D5F804E0AD6859F83C200092C1F34001ED
:1029F0000EEB0302EB1A42F2C145C0F20805A847EC
:102A000028B9EEE62046EAE744F08000E7E704F163
:102A10000104E4B2042C7FF46BAED3E600FA03F6B3
:102A20003743BFB2D66926EA0505D5610E6826F0A0
:102A300002050D6003F1FF33A1F10401DDB2A542EF
:102A40007FF6D2AE4FFA8CF6002E3FF435AED66943
:102A500000FA03F5354209D02F43BFB2D66926EA02
:102A60000505D5610E6826F002050D6003F1FF3300
:102A7000A1F10401DDB2A54288BFA0463FF61EAE1B
:102A8000B2E600FA03F63743BFB2D46924EA05057B
:102A9000D56151F8046C26F0020441F8044C03F1AE
:102AA000FF33A9F10401DDB245453FF607AE4446C8
:102AB0009AE600BF38B500F00F0303F1FF324FF084
:102AC000007101FA02F14FF44042C4F20A0251616E
:102AD0004FF44344C4F20A0404EB03114FF0000422
:102AE0008C604FF4805101FA03F1516110F0800FB6
:102AF0001CD04FEA83034CF23015C4F20A05591971
:102B00004CF2F012C4F20A029C184FF400554CF239
:102B1000C012C4F20A029A1804E02560136813F484
:102B2000005FFBD10B6813F4405FF6D141F2015115
:102B3000C0F20801884738BD80B542F67133C0F253
:102B4000080398474FF00E0742F67566C0F2080674
:102B50004FF02E0542F65564C0F208043846B047DF
:102B60002846A0473846A0472846B047F6E700BFAA
:102B700038B541F65023C4F20E034FF400425A60B8
:102B80004FF00B0043F22114C0F20804A0474FF0AD
:102B90000C00A0474FF00D00A0474FF00E00A047DB
:102BA0004FF03B004FF0605142F69564C0F20804CC
:102BB000A0474FF055004FF06051A0474FF056002E
:102BC0004FF06051A0474FF07905C2F600054FF075
:102BD00068002946A0474FF05C004FF00101C2F6A3
:102BE0000001A0474FF00E004FF06051A0474FF09A
:102BF00060004FF06051A0474FF062004FF060510D
:102C0000A0474FF066004FF06051A0474FF007001B
:102C10004FF06051A0474FF041004FF06051A04786
:102C20004FF043004FF06051A0474FF045004FF088
:102C30006051A0474FF047004FF06051A0474FF060
:102C400049004FF06051A0474FF014004FF0605121
:102C5000A0474FF052004FF06051A0474FF0500096
:102C60004FF06051A0474FF04E004FF06051A04729
:102C70004FF04C004FF06051A0474FF02E004FF046
:102C80006051A0474FF03A002946A0474FF00F008F
:102C90002946A0474FF061002946A0474FF0630046
:102CA0002946A0474FF069002946A0474FF06A0027
:102CB0002946A0474FF042002946A0474FF0440064
:102CC0002946A0474FF046002946A0474FF048004C
:102CD0002946A0474FF013002946A0474FF0530064
:102CE0002946A0474FF051002946A0474FF04F001A
:102CF0002946A0474FF04D002946A0474FF0550008
:102D00002946A0474FF46060C4F20E004FF44071B2
:102D10004FF0006242F69573C0F2080398474FF0F7
:102D200039004FF02051A0474FF00B004FF0805179
:102D3000A0474FF02C004FF08051A0474FF05500B6
:102D40004FF08051A0474FF056004FF08051A04700
:102D50004FF057004FF08051A0474FF02B004FF03D
:102D60000061A0474FF02A004FF00061A04738BD36
:102D70000AB1416670470166704700BF4264B1F115
:102D8000805F16D004D8C9B1B1F1006F15D109E048
:102D9000B1F1405F12D0B1F1605F0FD0B1F1205FAF
:102DA0000BD17047036F016F0B4023EA02030367E7
:102DB00003E0036F42EA030101674260704700BF0E
:102DC00041647047F8B504460D4616461F4642F664
:102DD000C153C0F20803984720462946069A42F696
:102DE0007153C0F2080398470FB1256500E065658F
:102DF0000EB1256300E0656325612560F8BD00BF65
:102E000070B504460D46164642F6C153C0F208039B
:102E100098472046294606F0010242F67153C0F257
:102E20000803984716F00A0F14BF2562656216F072
:102E3000020F02D0C4F8805004E016F0080F18BF4B
:102E4000C4F880506561256070BD00BFC06C7047DC
:102E5000806C70474FEA501303F5001101F20772BE
:102E60004FEA422300F01F004FF0010101FA00F287
:102E70001A6370474FEA501303F5001101F207720D
:102E80004FEA422300F01F004FF0010101FA00F267
:102E90005A637047F0B583B00D464FEA501606F5F9
:102EA000001101F207724FEA422605F0F044B4F136
:102EB000205F42D006D8B4F1006F0AD0B4F1805F31
:102EC00064D120E0B4F1405F46D0B4F1605F5DD1E1
:102ED00042E000F01F074FF0010404FA07F7304604
:102EE0004FF000613A4642F67D53C0F2080398471E
:102EF0003046394605EA040242F67153C0F208032F
:102F00009847204644E000F01F004FF0010404FA07
:102F100000F730464FF080513A4642F67D53C0F2FA
:102F2000080398473046394605EA040242F67153D1
:102F3000C0F20803984720462AE000F01F024FF035
:102F40000104304604FA02F12A4642F60163C0F257
:102F50000803984720461BE000F01F024FF00104D1
:102F600005F0605305EA04010091304604FA02F1CD
:102F7000B3F1605F14BF00220122C5F3800342F663
:102F8000C555C0F20805A847204601E04FF00000F3
:102F900003B0F0BDF0B583B007460E46154602F00B
:102FA000F044B4F1205F36D006D8B4F1006F0AD0F7
:102FB000B4F1805F4DD11AE0B4F1405F33D0B4F189
:102FC000605F46D12FE04FF00061324642F67D53FC
:102FD000C0F2080398473846314605F0010242F630
:102FE0007153C0F2080398474FF0010033E04FF0EF
:102FF0008051324642F67D53C0F208039847384666
:10300000314605F0010242F67153C0F208039847B9
:103010004FF001001FE042F60163C0F20803984739
:103020004FF0010017E005F0605205F0010000903C
:1030300038463146B2F1605F14BF00220122C5F369
:10304000800342F6C554C0F20804A0474FF00100C7
:1030500001E04FF0000003B0F0BD00BFF8B504463A
:103060000E4642F64D63C0F20803984705462046D7
:1030700042F65161C0F208018847054014D00B4C5C
:10308000274654F80C0CB0420AD154F8081C2942C7
:1030900006D022683046904754F8083C25EA0305DC
:1030A00004F11004002DEBD1F8BD00BFF00607209D
:1030B00008B54FF46060C4F20E004FF00B0143F20C
:1030C0005D03C0F20803984708BD00BF08B54FF480
:1030D0008050C4F20E004FF00C0143F25D03C0F2C9
:1030E0000803984708BD00BF08B54FF49050C4F2DC
:1030F0000E004FF00D0143F25D03C0F20803984744
:1031000008BD00BF08B54FF4A050C4F20E004FF048
:103110000E0143F25D03C0F20803984708BD00BFEB
:103120002C2835D81F2817D84FF4C061C4F20E01DF
:103130008A694FF0010303FA00F31A4093422AD040
:103140004FF0010101FA00F04FF4C062C4F20E0228
:1031500010614FF0000070474FF4C063C4F20E03DB
:10316000D3F80821A0F120004FF0010101FA00F18D
:103170000A40914212D04FF0010303FA00F04FF4DD
:10318000C062C4F20E02C2F800014FF000007047A6
:103190004FF0010070474FF0000070474FF0000003
:1031A000704700BF40F25473C2F20703187880F0F2
:1031B00001007047FEE700BF38B540F20003C2F2DD
:1031C000070343F25842C0F208029A4203D0404833
:1031D0004049814204D3404B404A9A4225D342E0C1
:1031E0003F4D404C631B23F003054FF0000340F2BA
:1031F0000002C2F2070243F25841C0F2080105F191
:103200000400C5F380045D589D5003F1040383421C
:1032100055D1E0E75D589D5003F104035C589C5084
:1032200003F104038342F5D1D5E72F4D2F49481B05
:1032300020F0030440F21853C2F20703E2184FF0E3
:103240000001501BA0F10400C0F3800445F8041FE6
:1032500095422DD107E005F10403696005F10805E9
:1032600059609542F7D140F20005C0F2080525F0FB
:10327000604222F07F014FF46D40CEF20000816089
:1032800005F16044B4F5801F07D24FF46D43CEF2D0
:1032900000039D6845F000529A6043F2B931C0F2D4
:1032A0000801884742F63930C0F208008047FEE73F
:1032B000002CD0D045F8041F9542CCD1D3E7002C88
:1032C000A8D05C589C5003F104038342A2D182E74A
:1032D0001805072000000720780707201805072099
:1032E000040007201B05072014050720730707208B
:1032F0002DE9F8439846234B06461C680F46D4F840
:103300004801914618B904F5A670C4F8480141680F
:103310001F2916DD1C4818B94FF0FF30BDE8F883AF
:103320004FF4C870AFF300800028F5D0D4F84821DE
:10333000002545600260C4F84801C0F88851C0F813
:103340008C51B6B14468012202FA04F2D0F8881117
:1033500000EB84031143022EC3F88890C0F8881153
:103360001C46C3F8088104D1D0F88C311A43C0F848
:103370008C2141688B1C4A1C40F82370426000205D
:10338000BDE8F8832C3408000000000070B5084B3D
:10339000084C0025E01A841003EB8406043D1CB1A0
:1033A00072599047013CF9E7BDE8704000F04CB815
:1033B000543408005834080038B50E4D0E4B002424
:1033C000E81A8510AC4205D00B4951F824209047EB
:1033D0000134F7E700F02EF80849094A541AA510FD
:1033E0000024AC4205D0054B53F82400804701343B
:1033F000F7E738BD40340800403408004034080086
:1034000048340800024B13B1024800F005B8704779
:10341000000000008D3308000146002002460346EC
:10342000FFF766BF3030303030300000F00007204A
:1034300043000000F8B500BFF8BC08BC9E467047CA
:10344000053408006D010800F8B500BFF8BC08BCE1
:083450009E467047450108008B
:103458001D07080021020800450208004D02080067
:10346800F5040800A50108000D020800550208002F
:103478004D02080000000000400007203800072027
:103488001400072000000720540007203000072000
:103498001201000202000040EB03042400010102B3
:1034A8000301000009024300020100C032090400C0
:1034B8000001020201000524001001042402020593
:1034C80024060001052401030107058303400010B9
:1034D80009040100020A00000007058102400000FB
:1034E8000705020240000000506879736963616C47
:1034F800436F6D6D616E64657200000045706865AC
:103508006D6572616C626974000000000003000060
:1035180000000000000000000000000000000000A3
:103528000000000000000000000000000000000093
:103538000403090401000000F00007200000000057
:1035480000000000DC03072044040720AC04072027
:103558000000000000000000000000000000000063
:103568000000000000000000000000000000000053
:1035780000000000303408000000000000000000D7
:103588000000000000000000000000000000000033
:103598000000000000000000000000000000000023
:1035A8000000000000000000000000000000000013
:1035B8000000000000000000000000000000000003
:1035C80000000000000000000000000000000000F3
:1035D80000000000000000000000000000000000E3
:1035E80000000000000000000100000000000000D2
:1035F8000E33CDAB34126DE6ECDE05000B00000097
:1036080000000000000000000000000000000000B2
:1036180000000000000000000000000000000000A2
:103628000000000000000000000000000000000092
:103638000000000000000000000000000000000082
:04000003800031B98F
:00000001FF
